:1000000000308A001928000025308400831300087E
:10001000031918280130F800F701F70B0D28F80B29
:100020000C284A30F700F70B13281628800B0A28F3
:10003000080003081F398300613083168F00900188
:100040000F088312A001A101A2018316031709085A
:10005000C039890003131F129F1200300317880054
:1000600083128701880189018313FF3083160313EC
:1000700085000030860083128601051C4428A00AF2
:100080002008043C0319A0012008013A03194F2855
:10009000033A03196C28013A03198A28A728210B6F
:1000A00052286B28A3012308023C031C692806146C
:1000B0000230A400FA30A5000420A40B5A28061030
:1000C0000230A400FA30A5000420A40B6228A30A81
:1000D00053280130A100A8282108023C03198928CF
:1000E0002208023C031C862886140230A400FA3041
:1000F000A5000420A40B772886100230A400FA3053
:10010000A5000420A40B7F28A20A70280230A100B9
:10011000A201A8282108033C0319A62806150230CD
:10012000A400FA30A5000420A40B91280611023087
:10013000A400FA30A5000420A40B9928A20A2208E2
:10014000023C03188E280330A100A201A8288601D2
:040150003D286300E3
:04400E00E42FFF3F5D
:00000001FF
;PIC16F887
;CRC=E4C0  CREATED="22-feb.-21 16:23"
